:100000000C942A000C9447000C9447000C94470071
:100010000C9447000C9447000C9447000C94470044
:100020000C9447000C9447000C9447000C94470034
:100030000C9447000C94CB000C9447000C944700A0
:100040000C9447000C9447000C9447000C94470014
:100050000C94470011241FBECFE5D8E0DEBFCDBF12
:1000600010E0A0E6B0E0E8ECF3E002C005900D92ED
:10007000A63BB107D9F720E0A6EBB0E001C01D9286
:10008000A83BB207E1F70E94F0000C94E2010C9447
:10009000000092989398EFE3FFE13197F1F700C0E9
:1000A0000000949AEFE3FFE13197F1F700C0000000
:1000B00085BB94988FE39FE10197F1F700C00000A2
:1000C00008958093B7006093B600662321F0805CAA
:1000D000613009F080E080680C944900CF93C82F0C
:1000E0006091B6008091B7000E946100929A939847
:1000F0008FE39FE10197F1F700C00000949A8FE32E
:100100009FE10197F1F700C00000C5BB8FE39FE1BD
:100110000197F1F700C0000094982091B7002F5F7D
:100120008091B600203159F441E050E0BA01681BDB
:100130007109CB0177FF03C0919581959109809357
:10014000B600203109F420E02093B700CF91089544
:10015000CF93DF93929A9398EFE3FFE13197F1F712
:1001600000C00000949AEFE3FFE13197F1F700C07F
:100170000000EC01899181110BC08FE39FE1019791
:10018000F1F700C0000080E2DF91CF910C946E0087
:100190000E946E00EFCF1F920F920FB60F921124A4
:1001A0002F933F934F935F936F937F938F939F937F
:1001B000AF93BF93EF93FF93F0E0E0E00995FF91D9
:1001C000EF91BF91AF919F918F917F916F915F91CF
:1001D0004F913F912F910F900FBE0F901F90189548
:1001E000CF93DF93CDB7DEB7E2970FB6F894DEBFBB
:1001F0000FBECDBF8FEF84BB81B38C6181BB88E321
:100200000E9449008CE00E94490081E00E94490060
:1002100080E18BB91AB886E480BD599A58988AB1A2
:1002200088618AB980B58F7780BD10BC8FEC89B9A1
:100230008AE0E0E6F0E0DE015F9601900D928A959B
:10024000E1F78AE0EAE6F0E0DE01999601900D928E
:100250008A95E1F71ABA8BB387608BBB8EE1E4E72E
:10026000F0E0DE01119601900D928A95E1F702E02F
:1002700010E0EE24E394F12C91E3D92E60E080E0CD
:100280000E946100CE014F960E94A80060E088E0C5
:100290000E946100C89B04C0C99B02C0CA99FACFE2
:1002A000C8996FC082E990E00E94A80018A61FA21A
:1002B0002FEF33EC49E0215030404040E1F700C0DF
:1002C000000061E080E00E946100CE0189960E94FA
:1002D000A80061E088E00E9461008BB1829586955C
:1002E0008770D9F3DCB85F9BFECF8CB1282F082E26
:1002F000000C330B3AAB29AB21E030E02C0F3D1F53
:100300004AE08402200D311D1124C9010E94A80079
:100310008FEF93EC29E0815090402040E1F700C03E
:10032000000081E00E9449001092B7001092B600D0
:100330002FA138A589A99AA92817390721F486EA97
:1003400090E00E94A8008FA198A529A93AA9821B34
:10035000930B8F3F3FEF930749F11CF5029649F14C
:100360003FEF43EC89E0315040408040E1F700C06E
:10037000000081E00E9449001092B7001092B60080
:100380007DCFC99907C088E990E00E94A800F8A62F
:10039000EFA28ECF80EA90E00E94A80018A70FA3DA
:1003A00087CF8130910529F00297D1F6CE01899649
:1003B00002C0CE014F960E94A80080EB90E00E9400
:0803C000A800CECFF894FFCF96
:1003C800457373616D2000000000536865686174AF
:1003D80061200000706170657200000000007363A6
:1003E8006973736F7200000073746F6E65000000AC
:1003F800000070617065720073636973736F7200D7
:1004080073746F6E65004E6F2077696E6E6572004B
:0604180057696E7300003D
:00000001FF
