:100000000C942A000C9434000C9434000C943400AA
:100010000C9434000C9434000C9434000C94340090
:100020000C9434000C9434000C9434000C94340080
:100030000C9434000C943D000C9434000C94340067
:100040000C9434000C9434000C9434000C94340060
:100050000C94340011241FBECFE5D8E0DEBFCDBF25
:100060000E9462000C94A8000C9400009BB1929531
:1000700096959770D9F38CB908951F920F920FB689
:100080000F9211242F933F934F935F936F937F931E
:100090008F939F93AF93BF93EF93FF93F0E0E0E0D4
:1000A0000995FF91EF91BF91AF919F918F917F91B2
:1000B0006F915F914F913F912F910F900FBE0F90D5
:1000C0001F90189580E18BB91AB886E480BD599AC3
:1000D00058988AB188618AB980B58F7780BD10BC85
:1000E00087E689B91ABA8BB387608BBB5F9BFECF5B
:1000F0008CB18133D9F7C89B04C0C99B02C0CA998F
:10010000FACFC8990DC02FEF81EE94E021508040C6
:100110009040E1F700C0000080E00E943600E6CF8A
:10012000C9990BC02FEF81EE94E0215080409040A0
:10013000E1F700C0000081E0F0CF2FEF81EE94E006
:10014000215080409040E1F700C0000082E0E5CF00
:04015000F894FFCF51
:00000001FF
