:100000000C942A000C943F000C943F000C943F0089
:100010000C943F000C943F000C943F000C943F0064
:100020000C943F000C943F000C943F000C943F0054
:100030000C943F000C94D5000C943F000C943F00AE
:100040000C943F000C943F000C943F000C943F0034
:100050000C943F0011241FBECFE5D8E0DEBFCDBF1A
:1000600010E0A0E6B0E0E0E3F4E002C005900D92FD
:10007000A63BB107D9F70E94FA000C9416020C9423
:100080000000199A84E886BF06B607FEFDCF1998CE
:1000900084E886BF06B607FEFDCF08950F931F9331
:1000A000CF93DF938C01D4E8F801C1918F01C11186
:1000B00005C0DF91CF911F910F910895189AD6BF77
:1000C00006B607FEFDCF83B18F7083B9D6BF06B6E3
:1000D00007FEFDCF93B18C2F807F892B83B9D6BFCC
:1000E00006B607FEFDCF0E94410083B18F7083B931
:1000F000D6BF06B607FEFDCF23B130E1C302C00173
:100100001124822B83B9D6BF06B607FEFDCF0E940D
:100110004100CACFCF93C82F189884E886BF06B68F
:1001200007FEFDCF83B18F7083B984E886BF06B622
:1001300007FEFDCF93B18C2F807F892B83B984E894
:1001400086BF06B607FEFDCF0E94410083B18F70C7
:1001500083B984E886BF06B607FEFDCF23B130E140
:10016000C302C0011124822B83B984E886BF06B67E
:1001700007FEFDCFCF910C944100189894E896BFEC
:1001800006B607FEFDCF93B19F7093B994E896BF72
:1001900006B607FEFDCF93B1892B83B984E886BFED
:1001A00006B607FEFDCF0C9441001F920F920FB6CA
:1001B0000F9211242F933F934F935F936F937F93ED
:1001C0008F939F93AF93BF93EF93FF93F0E0E0E0A3
:1001D0000995FF91EF91BF91AF919F918F917F9181
:1001E0006F915F914F913F912F910F900FBE0F90A4
:1001F0001F901895CF93DF93CDB7DEB7E2970FB678
:10020000F894DEBF0FBECDBF80E18BB91AB886E48B
:1002100080BD599A58988AB188618AB980B58F771C
:1002200080BD10BC87E689B982E680B984E086BFCC
:1002300011B884EA86BF06B607FEFDCF80E483B915
:1002400084E886BF06B607FEFDCF80E30E94BD00AE
:1002500080E30E94BD0080E20E94BD0088E20E940F
:100260008A008CE00E948A0081E00E948A0086E079
:100270000E948A0080E80E948A008AE0E0E6F0E0BE
:10028000DE015F9601900D928A95E1F78AE0EAE639
:10029000F0E0DE01999601900D928A95E1F71ABA85
:1002A0008BB387608BBB8EE1E4E7F0E0DE01119653
:1002B00001900D928A95E1F702E010E0EE24E394BC
:1002C000F12C91E3D92E80E80E948A00CE014F964E
:1002D0000E944E0088E80E948A00C89B04C0C99B07
:1002E00002C0CA99FACFC8996EC02FEF31EE44E030
:1002F000215030404040E1F700C0000082E990E02A
:100300000E944E0018A61FA29FEF21EE34E09150EC
:1003100020403040E1F700C0000080EC0E948A00DD
:10032000CE0189960E944E0088EC0E948A008BB113
:10033000829586958770D9F3DCB85F9BFECF8CB130
:10034000282F082E000C330B3AAB29AB21E030E00C
:100350002C0F3D1F4AE08402200D311D1124C901DC
:100360000E944E008FEF91EE24E08150904020409B
:10037000E1F700C0000081E00E948A002FA138A5AB
:1003800089A99AA92817390721F486EA90E00E94E2
:100390004E008FA198A529A93AA9821B930B8F3FE4
:1003A0003FEF9307B9F18CF50296B9F13FEF41EEBB
:1003B00084E0315040408040E1F700C0000081E01F
:1003C0000E948A0080CFC99910C08FEF91EE24E07F
:1003D000815090402040E1F700C0000088E990E0A3
:1003E0000E944E00F8A6EFA28FCF3FEF41EE84E0CF
:1003F000315040408040E1F700C0000080EA90E0CA
:100400000E944E0018A70FA37FCF8130910529F0DD
:10041000029761F6CE01899602C0CE014F960E94E6
:100420004E0080EB90E00E944E00C0CFF894FFCFCA
:10043000457373616D200000000053686568617446
:10044000612000007061706572000000000073633D
:100450006973736F7200000073746F6E6500000043
:10046000000070617065720073636973736F72006E
:1004700073746F6E65004E6F2077696E6E657200E3
:0604800057696E730000D5
:00000001FF
